{
  "address": "0x051093Cd3aeF850cCDe417862ebD07F138E212ce",
  "abi": [
    {
      "inputs": [
        {
          "internalType": "string",
          "name": "_lastname",
          "type": "string"
        },
        {
          "internalType": "string",
          "name": "_firstname",
          "type": "string"
        },
        {
          "internalType": "uint256",
          "name": "_age",
          "type": "uint256"
        }
      ],
      "stateMutability": "nonpayable",
      "type": "constructor"
    },
    {
      "anonymous": false,
      "inputs": [
        {
          "indexed": true,
          "internalType": "address",
          "name": "previousOwner",
          "type": "address"
        },
        {
          "indexed": true,
          "internalType": "address",
          "name": "newOwner",
          "type": "address"
        }
      ],
      "name": "OwnershipTransferred",
      "type": "event"
    },
    {
      "inputs": [
        {
          "internalType": "address",
          "name": "_address",
          "type": "address"
        },
        {
          "internalType": "string",
          "name": "_lastname",
          "type": "string"
        },
        {
          "internalType": "string",
          "name": "_firstname",
          "type": "string"
        },
        {
          "internalType": "uint256",
          "name": "_age",
          "type": "uint256"
        }
      ],
      "name": "addPerson",
      "outputs": [],
      "stateMutability": "nonpayable",
      "type": "function"
    },
    {
      "inputs": [
        {
          "internalType": "address",
          "name": "_address",
          "type": "address"
        }
      ],
      "name": "getPerson",
      "outputs": [
        {
          "components": [
            {
              "internalType": "string",
              "name": "lastName",
              "type": "string"
            },
            {
              "internalType": "string",
              "name": "firstName",
              "type": "string"
            },
            {
              "internalType": "uint256",
              "name": "age",
              "type": "uint256"
            }
          ],
          "internalType": "struct Identification.Person",
          "name": "",
          "type": "tuple"
        }
      ],
      "stateMutability": "view",
      "type": "function"
    },
    {
      "inputs": [],
      "name": "owner",
      "outputs": [
        {
          "internalType": "address",
          "name": "",
          "type": "address"
        }
      ],
      "stateMutability": "view",
      "type": "function"
    },
    {
      "inputs": [],
      "name": "renounceOwnership",
      "outputs": [],
      "stateMutability": "nonpayable",
      "type": "function"
    },
    {
      "inputs": [
        {
          "internalType": "address",
          "name": "newOwner",
          "type": "address"
        }
      ],
      "name": "transferOwnership",
      "outputs": [],
      "stateMutability": "nonpayable",
      "type": "function"
    }
  ],
  "transactionHash": "0x4b161690b0a4ba60cba573e1a58ccd70b93e667ded3bc1fa42279ec93125f832",
  "args": [
    "Gi",
    "Victor",
    "29"
  ],
  "numDeployments": 3,
  "solcInputHash": "afd5cc29296ac41ab4ba025d6f8511e5",
  "bytecode": "0x60806040523480156200001157600080fd5b50604051620014bc380380620014bc833981810160405281019062000037919062000397565b620000576200004b620000fd60201b60201c565b6200010560201b60201c565b6000604051806060016040528085815260200184815260200183815250905080600160003373ffffffffffffffffffffffffffffffffffffffff1673ffffffffffffffffffffffffffffffffffffffff1681526020019081526020016000206000820151816000019081620000cd919062000672565b506020820151816001019081620000e5919062000672565b50604082015181600201559050505050505062000759565b600033905090565b60008060009054906101000a900473ffffffffffffffffffffffffffffffffffffffff169050816000806101000a81548173ffffffffffffffffffffffffffffffffffffffff021916908373ffffffffffffffffffffffffffffffffffffffff1602179055508173ffffffffffffffffffffffffffffffffffffffff168173ffffffffffffffffffffffffffffffffffffffff167f8be0079c531659141344cd1fd0a4f28419497f9722a3daafe3b4186f6b6457e060405160405180910390a35050565b6000604051905090565b600080fd5b600080fd5b600080fd5b600080fd5b6000601f19601f8301169050919050565b7f4e487b7100000000000000000000000000000000000000000000000000000000600052604160045260246000fd5b6200023282620001e7565b810181811067ffffffffffffffff82111715620002545762000253620001f8565b5b80604052505050565b600062000269620001c9565b905062000277828262000227565b919050565b600067ffffffffffffffff8211156200029a5762000299620001f8565b5b620002a582620001e7565b9050602081019050919050565b60005b83811015620002d2578082015181840152602081019050620002b5565b60008484015250505050565b6000620002f5620002ef846200027c565b6200025d565b905082815260208101848484011115620003145762000313620001e2565b5b62000321848285620002b2565b509392505050565b600082601f830112620003415762000340620001dd565b5b815162000353848260208601620002de565b91505092915050565b6000819050919050565b62000371816200035c565b81146200037d57600080fd5b50565b600081519050620003918162000366565b92915050565b600080600060608486031215620003b357620003b2620001d3565b5b600084015167ffffffffffffffff811115620003d457620003d3620001d8565b5b620003e28682870162000329565b935050602084015167ffffffffffffffff811115620004065762000405620001d8565b5b620004148682870162000329565b9250506040620004278682870162000380565b9150509250925092565b600081519050919050565b7f4e487b7100000000000000000000000000000000000000000000000000000000600052602260045260246000fd5b600060028204905060018216806200048457607f821691505b6020821081036200049a57620004996200043c565b5b50919050565b60008190508160005260206000209050919050565b60006020601f8301049050919050565b600082821b905092915050565b600060088302620005047fffffffffffffffffffffffffffffffffffffffffffffffffffffffffffffffff82620004c5565b620005108683620004c5565b95508019841693508086168417925050509392505050565b6000819050919050565b6000620005536200054d62000547846200035c565b62000528565b6200035c565b9050919050565b6000819050919050565b6200056f8362000532565b620005876200057e826200055a565b848454620004d2565b825550505050565b600090565b6200059e6200058f565b620005ab81848462000564565b505050565b5b81811015620005d357620005c760008262000594565b600181019050620005b1565b5050565b601f8211156200062257620005ec81620004a0565b620005f784620004b5565b8101602085101562000607578190505b6200061f6200061685620004b5565b830182620005b0565b50505b505050565b600082821c905092915050565b6000620006476000198460080262000627565b1980831691505092915050565b600062000662838362000634565b9150826002028217905092915050565b6200067d8262000431565b67ffffffffffffffff811115620006995762000698620001f8565b5b620006a582546200046b565b620006b2828285620005d7565b600060209050601f831160018114620006ea5760008415620006d5578287015190505b620006e1858262000654565b86555062000751565b601f198416620006fa86620004a0565b60005b828110156200072457848901518255600182019150602085019450602081019050620006fd565b8683101562000744578489015162000740601f89168262000634565b8355505b6001600288020188555050505b505050505050565b610d5380620007696000396000f3fe608060405234801561001057600080fd5b50600436106100575760003560e01c8063552d2d5c1461005c578063553c84011461008c578063715018a6146100a85780638da5cb5b146100b2578063f2fde38b146100d0575b600080fd5b610076600480360381019061007191906105b7565b6100ec565b60405161008391906106e4565b60405180910390f35b6100a660048036038101906100a19190610867565b610273565b005b6100b061031a565b005b6100ba61032e565b6040516100c79190610915565b60405180910390f35b6100ea60048036038101906100e591906105b7565b610357565b005b6100f4610524565b600160008373ffffffffffffffffffffffffffffffffffffffff1673ffffffffffffffffffffffffffffffffffffffff16815260200190815260200160002060405180606001604052908160008201805461014e9061095f565b80601f016020809104026020016040519081016040528092919081815260200182805461017a9061095f565b80156101c75780601f1061019c576101008083540402835291602001916101c7565b820191906000526020600020905b8154815290600101906020018083116101aa57829003601f168201915b505050505081526020016001820180546101e09061095f565b80601f016020809104026020016040519081016040528092919081815260200182805461020c9061095f565b80156102595780601f1061022e57610100808354040283529160200191610259565b820191906000526020600020905b81548152906001019060200180831161023c57829003601f168201915b505050505081526020016002820154815250509050919050565b61027b6103da565b6000604051806060016040528085815260200184815260200183815250905080600160008773ffffffffffffffffffffffffffffffffffffffff1673ffffffffffffffffffffffffffffffffffffffff16815260200190815260200160002060008201518160000190816102ef9190610b3c565b5060208201518160010190816103059190610b3c565b50604082015181600201559050505050505050565b6103226103da565b61032c6000610458565b565b60008060009054906101000a900473ffffffffffffffffffffffffffffffffffffffff16905090565b61035f6103da565b600073ffffffffffffffffffffffffffffffffffffffff168173ffffffffffffffffffffffffffffffffffffffff16036103ce576040517f08c379a00000000000000000000000000000000000000000000000000000000081526004016103c590610c91565b60405180910390fd5b6103d781610458565b50565b6103e261051c565b73ffffffffffffffffffffffffffffffffffffffff1661040061032e565b73ffffffffffffffffffffffffffffffffffffffff1614610456576040517f08c379a000000000000000000000000000000000000000000000000000000000815260040161044d90610cfd565b60405180910390fd5b565b60008060009054906101000a900473ffffffffffffffffffffffffffffffffffffffff169050816000806101000a81548173ffffffffffffffffffffffffffffffffffffffff021916908373ffffffffffffffffffffffffffffffffffffffff1602179055508173ffffffffffffffffffffffffffffffffffffffff168173ffffffffffffffffffffffffffffffffffffffff167f8be0079c531659141344cd1fd0a4f28419497f9722a3daafe3b4186f6b6457e060405160405180910390a35050565b600033905090565b60405180606001604052806060815260200160608152602001600081525090565b6000604051905090565b600080fd5b600080fd5b600073ffffffffffffffffffffffffffffffffffffffff82169050919050565b600061058482610559565b9050919050565b61059481610579565b811461059f57600080fd5b50565b6000813590506105b18161058b565b92915050565b6000602082840312156105cd576105cc61054f565b5b60006105db848285016105a2565b91505092915050565b600081519050919050565b600082825260208201905092915050565b60005b8381101561061e578082015181840152602081019050610603565b60008484015250505050565b6000601f19601f8301169050919050565b6000610646826105e4565b61065081856105ef565b9350610660818560208601610600565b6106698161062a565b840191505092915050565b6000819050919050565b61068781610674565b82525050565b600060608301600083015184820360008601526106aa828261063b565b915050602083015184820360208601526106c4828261063b565b91505060408301516106d9604086018261067e565b508091505092915050565b600060208201905081810360008301526106fe818461068d565b905092915050565b600080fd5b600080fd5b7f4e487b7100000000000000000000000000000000000000000000000000000000600052604160045260246000fd5b6107488261062a565b810181811067ffffffffffffffff8211171561076757610766610710565b5b80604052505050565b600061077a610545565b9050610786828261073f565b919050565b600067ffffffffffffffff8211156107a6576107a5610710565b5b6107af8261062a565b9050602081019050919050565b82818337600083830152505050565b60006107de6107d98461078b565b610770565b9050828152602081018484840111156107fa576107f961070b565b5b6108058482856107bc565b509392505050565b600082601f83011261082257610821610706565b5b81356108328482602086016107cb565b91505092915050565b61084481610674565b811461084f57600080fd5b50565b6000813590506108618161083b565b92915050565b600080600080608085870312156108815761088061054f565b5b600061088f878288016105a2565b945050602085013567ffffffffffffffff8111156108b0576108af610554565b5b6108bc8782880161080d565b935050604085013567ffffffffffffffff8111156108dd576108dc610554565b5b6108e98782880161080d565b92505060606108fa87828801610852565b91505092959194509250565b61090f81610579565b82525050565b600060208201905061092a6000830184610906565b92915050565b7f4e487b7100000000000000000000000000000000000000000000000000000000600052602260045260246000fd5b6000600282049050600182168061097757607f821691505b60208210810361098a57610989610930565b5b50919050565b60008190508160005260206000209050919050565b60006020601f8301049050919050565b600082821b905092915050565b6000600883026109f27fffffffffffffffffffffffffffffffffffffffffffffffffffffffffffffffff826109b5565b6109fc86836109b5565b95508019841693508086168417925050509392505050565b6000819050919050565b6000610a39610a34610a2f84610674565b610a14565b610674565b9050919050565b6000819050919050565b610a5383610a1e565b610a67610a5f82610a40565b8484546109c2565b825550505050565b600090565b610a7c610a6f565b610a87818484610a4a565b505050565b5b81811015610aab57610aa0600082610a74565b600181019050610a8d565b5050565b601f821115610af057610ac181610990565b610aca846109a5565b81016020851015610ad9578190505b610aed610ae5856109a5565b830182610a8c565b50505b505050565b600082821c905092915050565b6000610b1360001984600802610af5565b1980831691505092915050565b6000610b2c8383610b02565b9150826002028217905092915050565b610b45826105e4565b67ffffffffffffffff811115610b5e57610b5d610710565b5b610b68825461095f565b610b73828285610aaf565b600060209050601f831160018114610ba65760008415610b94578287015190505b610b9e8582610b20565b865550610c06565b601f198416610bb486610990565b60005b82811015610bdc57848901518255600182019150602085019450602081019050610bb7565b86831015610bf95784890151610bf5601f891682610b02565b8355505b6001600288020188555050505b505050505050565b600082825260208201905092915050565b7f4f776e61626c653a206e6577206f776e657220697320746865207a65726f206160008201527f6464726573730000000000000000000000000000000000000000000000000000602082015250565b6000610c7b602683610c0e565b9150610c8682610c1f565b604082019050919050565b60006020820190508181036000830152610caa81610c6e565b9050919050565b7f4f776e61626c653a2063616c6c6572206973206e6f7420746865206f776e6572600082015250565b6000610ce7602083610c0e565b9150610cf282610cb1565b602082019050919050565b60006020820190508181036000830152610d1681610cda565b905091905056fea26469706673582212204d0c23ddd46dd161bdbbb9f2447f0c6a956da29b1c842249694b5b5ea789386564736f6c63430008110033",
  "devdoc": {
    "kind": "dev",
    "methods": {
      "owner()": {
        "details": "Returns the address of the current owner."
      },
      "renounceOwnership()": {
        "details": "Leaves the contract without owner. It will not be possible to call `onlyOwner` functions anymore. Can only be called by the current owner. NOTE: Renouncing ownership will leave the contract without an owner, thereby removing any functionality that is only available to the owner."
      },
      "transferOwnership(address)": {
        "details": "Transfers ownership of the contract to a new account (`newOwner`). Can only be called by the current owner."
      }
    },
    "version": 1
  },
  "userdoc": {
    "kind": "user",
    "methods": {},
    "version": 1
  },
  "storageLayout": {
    "storage": [
      {
        "astId": 7,
        "contract": "contracts/IdAddr.sol:Identification",
        "label": "_owner",
        "offset": 0,
        "slot": "0",
        "type": "t_address"
      },
      {
        "astId": 151,
        "contract": "contracts/IdAddr.sol:Identification",
        "label": "persons",
        "offset": 0,
        "slot": "1",
        "type": "t_mapping(t_address,t_struct(Person)146_storage)"
      }
    ],
    "types": {
      "t_address": {
        "encoding": "inplace",
        "label": "address",
        "numberOfBytes": "20"
      },
      "t_mapping(t_address,t_struct(Person)146_storage)": {
        "encoding": "mapping",
        "key": "t_address",
        "label": "mapping(address => struct Identification.Person)",
        "numberOfBytes": "32",
        "value": "t_struct(Person)146_storage"
      },
      "t_string_storage": {
        "encoding": "bytes",
        "label": "string",
        "numberOfBytes": "32"
      },
      "t_struct(Person)146_storage": {
        "encoding": "inplace",
        "label": "struct Identification.Person",
        "members": [
          {
            "astId": 141,
            "contract": "contracts/IdAddr.sol:Identification",
            "label": "lastName",
            "offset": 0,
            "slot": "0",
            "type": "t_string_storage"
          },
          {
            "astId": 143,
            "contract": "contracts/IdAddr.sol:Identification",
            "label": "firstName",
            "offset": 0,
            "slot": "1",
            "type": "t_string_storage"
          },
          {
            "astId": 145,
            "contract": "contracts/IdAddr.sol:Identification",
            "label": "age",
            "offset": 0,
            "slot": "2",
            "type": "t_uint256"
          }
        ],
        "numberOfBytes": "96"
      },
      "t_uint256": {
        "encoding": "inplace",
        "label": "uint256",
        "numberOfBytes": "32"
      }
    }
  }
}